:020000040800F2
:1000000000280020850F0008150F00081B0F0008AE
:10001000210F0008270F00082D0F00080000000026
:10002000000000000000000000000000330F000886
:100030003F0F0008000000004B0F0008570F00089A
:10004000CD0F0008CD0F0008CD0F0008CD0F000820
:10005000CD0F0008CD0F0008CD0F0008CD0F000810
:10006000CD0F0008CD0F0008CD0F0008CD0F000800
:10007000CD0F0008CD0F0008CD0F0008CD0F0008F0
:10008000CD0F0008CD0F0008CD0F0008CD0F0008E0
:10009000CD0F0008CD0F0008CD0F0008CD0F0008D0
:1000A000CD0F0008CD0F0008CD0F0008CD0F0008C0
:1000B000650F0008CD0F000800000000CD0F0008FC
:1000C000CD0F00080000000000000000CD0F000868
:1000D00000000000CD0F0008CD0F00080000000058
:1000E000CD0F0008CD0F0008CD0F00080000000064
:1000F0000000000000000000000000000000000000
:0C01000000000000000000005FF808F1A3
:10010C0010B5054C237833B9044B13B10448AFF345
:10011C0000800123237010BD380000200000000077
:10012C00E825000808B5034B1BB103490348AFF39E
:10013C00008008BD000000003C000020E8250008FD
:10014C0080B483B000AF7860054A7B681360054BC0
:10015C0000221A6000BF0C37BD4680BC704700BF40
:10016C00540000200000002080B483B000AF786001
:10017C00054A7B681360054B00221A6000BF0C37E0
:10018C00BD4680BC704700BF580000200400002012
:10019C0080B483B000AF7860054A7B681360054B70
:1001AC0000221A6000BF0C37BD4680BC704700BFF0
:1001BC005C0000200800002080B400AF194B1B68C5
:1001CC00002B0BDD174B1B68013B164A1360154BBC
:1001DC001B68002B02DC144B01221A60134B1B68AA
:1001EC00002B0BDD114B1B68013B104A13600F4BAE
:1001FC001B68002B02DC0E4B01221A600D4B1B6896
:10020C00002B0BDD0B4B1B68013B0A4A1360094B9F
:10021C001B68002B02DC084B01221A6000BFBD4694
:10022C0080BC7047540000200000002058000020C3
:10023C00040000205C0000200800002080B586B07F
:10024C0000AF00F0BFFE00F06BF800F0F1F800F02A
:10025C00A3F82E4801F0FEFD00237B610F233B61C8
:10026C000823FB603223BB6000237B60F96838698C
:10027C0000F08AFB264B1B68012B0DD17B68032BEE
:10028C0001DD00237B60786800F0DAFA7B680133CB
:10029C007B601920FFF768FF1E4B1B68012B22D1D6
:1002AC00BB680133BB60BB683B2B04DD0023BB6028
:1002BC00FB680133FB60FB683B2B04DD0023FB6018
:1002CC003B6901333B613B69172B01DD00233B612B
:1002DC002021114801F078F910210F4801F074F930
:1002EC006420FFF72DFF0D4B1B68012BBED17B69E2
:1002FC00072B01DD00237B617B695A1C7A61184650
:10030C0000F07EFB1420FFF743FFAFE760000020F6
:10031C00040000200000002000080140080000201C
:10032C0080B590B000AF07F11803282200211846C1
:10033C0002F04CF93B1D00221A605A609A60DA6098
:10034C001A610223BB610123BB621023FB620023F1
:10035C007B6307F11803184601F050F90346002B94
:10036C0001D000F075FD0F237B600023BB600023E0
:10037C00FB6000233B6100237B613B1D0021184681
:10038C0001F0BCFB0346002B01D000F061FD00BF67
:10039C004037BD4680BD000080B586B000AF07F188
:1003AC00080300221A605A609A60DA603B46002209
:1003BC001A605A601D4B4FF080421A601B4B41F67D
:1003CC003F725A60194B00229A60184B0922DA606E
:1003DC00164B00221A61154B00229A61134801F04A
:1003EC00E9FC0346002B01D000F032FD4FF48053A2
:1003FC00BB6007F1080319460C4801F07FFE034669
:10040C00002B01D000F024FD00233B6000237B6017
:10041C003B461946054802F04BF80346002B01D029
:10042C0000F016FD00BF1837BD4680BD60000020EF
:10043C0080B586B000AF07F1080300221A605A603D
:10044C009A60DA60224B9B69214A43F00403936162
:10045C001F4B9B6903F004037B607B681C4B9B69FF
:10046C001B4A43F008039361194B9B6903F0080383
:10047C003B603B6800224FF6FC71164801F08CF88B
:10048C0000224FF67F71144801F086F84FF6FC738A
:10049C00BB600123FB6000233B6102237B6107F1FE
:1004AC00080319460B4800F0FDFE4FF67F73BB6046
:1004BC000123FB6000233B6102237B6107F10803EE
:1004CC001946054800F0EEFE00BF1837BD4680BD4A
:1004DC000010024000080140000C014080B582B0C1
:1004EC0000AF78607B68092B00F2808101A252F882
:1004FC0023F000BF2905000871050008B9050008A4
:10050C00010600084906000891060008D9060008F3
:10051C002107000869070008B10700080022012123
:10052C00C64801F039F800220221C44801F034F821
:10053C0000220421C14801F02FF800220821BF48F5
:10054C0001F02AF800221021BC4801F025F8002205
:10055C002021BA4801F020F801224021B74801F0CF
:10056C001BF867E101220121B44801F015F80022C3
:10057C000221B24801F010F800220421AF4801F02A
:10058C000BF801220821AD4801F006F801221021D8
:10059C00AA4801F001F801222021A84800F0FCFF34
:1005AC0001224021A54800F0F7FF43E10022012180
:1005BC00A24800F0F1FF00220221A04800F0ECFF5D
:1005CC00012204219D4800F0E7FF002208219B48EE
:1005DC0000F0E2FF00221021984800F0DDFF01221C
:1005EC002021964800F0D8FF00224021934800F0CB
:1005FC00D3FF1FE100220121904800F0CDFF002223
:10060C0002218E4800F0C8FF002204218B4800F024
:10061C00C3FF00220821894800F0BEFF01221021EF
:10062C00864800F0B9FF01222021844800F0B4FF75
:10063C0000224021814800F0AFFFFBE001220121A4
:10064C007E4800F0A9FF002202217C4800F0A4FFA4
:10065C0000220421794800F09FFF012208217748ED
:10066C0000F09AFF01221021744800F095FF00223F
:10067C002021724800F090FF002240216F4800F0CA
:10068C008BFFD7E0002201216C4800F085FF01228E
:10069C0002216A4800F080FF00220421674800F024
:1006AC007BFF00220821654800F076FF0122102113
:1006BC00624800F071FF00222021604800F06CFFBE
:1006CC00002240215D4800F067FFB3E000220121C9
:1006DC005A4800F061FF01220221584800F05CFFEB
:1006EC0000220421554800F057FF002208215348EE
:1006FC0000F052FF00221021504800F04DFF002264
:10070C0020214E4800F048FF002240214B4800F0C9
:10071C0043FF8FE000220121484800F03DFF0022FA
:10072C000221464800F038FF00220421434800F023
:10073C0033FF01220821414800F02EFF0122102135
:10074C003E4800F029FF012220213C4800F024FF04
:10075C0001224021394800F01FFF6BE000220121EB
:10076C00364800F019FF00220221344800F014FF33
:10077C0000220421314800F00FFF002208212F48ED
:10078C0000F00AFF002210212C4800F005FF002287
:10079C0020212A4800F000FF00224021274800F0C9
:1007AC00FBFE47E000220121244800F0F5FE002268
:1007BC000221224800F0F0FE002204211F4800F024
:1007CC00EBFE002208211D4800F0E6FE012210215C
:1007DC001A4800F0E1FE00222021184800F0DCFE4F
:1007EC0000224021154800F0D7FE23E00122012110
:1007FC00124800F0D1FE01220221104800F0CCFE7C
:10080C00012204210D4800F0C7FE012208210B48EB
:10081C0000F0C2FE01221021084800F0BDFE0122AA
:10082C002021064800F0B8FE01224021034800F0C8
:10083C00B3FE00BF00BF0837BD4680BD000C0140B1
:10084C0080B582B000AF78607B68032B7AD801A2A8
:10085C0052F823F071080008A9080008E108000804
:10086C001909000800224021454800F095FE01229C
:10087C008021434800F090FE01224FF480714048E3
:10088C0000F08AFE01224FF400713D4800F084FE16
:10089C003C4B1B681846FFF721FE6DE001224021FE
:1008AC00374800F079FE00228021354800F074FEB4
:1008BC0001224FF48071324800F06EFE01224FF499
:1008CC0000712F4800F068FE2E4B5B681846FFF74E
:1008DC0005FE51E001224021294800F05DFE012275
:1008EC008021274800F058FE00224FF480712448E4
:1008FC0000F052FE01224FF40071214800F04CFE32
:10090C00204B9B681846FFF7E9FD35E0012240219A
:10091C001B4800F041FE01228021194800F03CFEEA
:10092C0001224FF48071164800F036FE00224FF47D
:10093C000071134800F030FE124BDB681846FFF7CD
:10094C00CDFD19E0002240210D4800F025FE0022CB
:10095C0080210B4800F020FE00224FF480710848E3
:10096C0000F01AFE00224FF40071054800F014FE4E
:10097C000020FFF7B3FD00BF00BF0837BD4680BDA8
:10098C00000801400C00002080B483B000AF7860F8
:10099C0039607B68184A82FB03129210DB17D31A5A
:1009AC00164A13607968144B83FB01239A10CB17FA
:1009BC00D21A13469B0013445B00CA1A0F4B5A60A1
:1009CC003B680D4A82FB03129210DB17D31A0B4AB9
:1009DC0093603968084B83FB01239A10CB17D21A0A
:1009EC0013469B0013445B00CA1A044BDA6000BF29
:1009FC000C37BD4680BC7047676666660C000020ED
:100A0C0080B582B000AF78607B68072B00F20A8259
:100A1C0001A252F823F000BF450A0008C10A0008E1
:100A2C003D0B0008B90B0008350C0008B10C000890
:100A3C00390D0008B50D000800220421B84800F05B
:100A4C00ABFD01220821B64800F0A6FD01224FF4AF
:100A5C008061B34800F0A0FD01224FF40061B04862
:100A6C0000F09AFD01224FF48051AD4800F094FD46
:100A7C0001224FF40051AA4800F08EFD01224FF4E0
:100A8C008041A74800F088FD01224FF40041A448A2
:100A9C0000F082FDA34BDB68A24A23F47F43D360B2
:100AAC00A04BDB68A04A1288120211469D4A0B43E8
:100ABC00D360B8E101220421994800F06DFD0022B9
:100ACC000821974800F068FD01224FF4806194489A
:100ADC0000F062FD01224FF40061914800F05CFDD2
:100AEC0001224FF480518E4800F056FD01224FF444
:100AFC0000518B4800F050FD01224FF48041884892
:100B0C0000F04AFD01224FF40041854800F044FDFD
:100B1C00844BDB68834A23F47F43D360814BDB68CF
:100B2C00814A5288120211467E4A0B43D3607AE105
:100B3C00012204217A4800F02FFD01220821784877
:100B4C0000F02AFD00224FF48061754800F024FD6E
:100B5C0001224FF40061724800F01EFD01224FF497
:100B6C0080516F4800F018FD01224FF400516C4881
:100B7C0000F012FD01224FF48041694800F00CFD99
:100B8C0001224FF40041664800F006FD654BDB681E
:100B9C00644A23F47F43D360624BDB68624A9288D9
:100BAC00120211465F4A0B43D3603CE1012204213F
:100BBC005B4800F0F1FC01220821594800F0ECFCE4
:100BCC0001224FF48061564800F0E6FC00224FF4FD
:100BDC000061534800F0E0FC01224FF48051504872
:100BEC0000F0DAFC01224FF400514D4800F0D4FC27
:100BFC0001224FF480414A4800F0CEFC01224FF410
:100C0C000041474800F0C8FC464BDB68454A23F4DA
:100C1C007F43D360434BDB68434AD28812021146B0
:100C2C00404A0B43D360FEE0012204213C4800F013
:100C3C00B3FC012208213A4800F0AEFC01224FF42B
:100C4C008061374800F0A8FC01224FF40061344861
:100C5C0000F0A2FC00224FF48051314800F09CFCC3
:100C6C0001224FF400512E4800F096FC01224FF463
:100C7C0080412B4800F090FC01224FF400412848A1
:100C8C0000F08AFC274BDB68264A23F47F43D360B1
:100C9C00244BDB68244A128912021146214A0B4369
:100CAC00D360C0E0012204211D4800F075FC012234
:100CBC0008211B4800F070FC01224FF48061184899
:100CCC0000F06AFC01224FF40061154800F064FC4E
:100CDC0001224FF48051124800F05EFC00224FF4C8
:100CEC0000510F4800F058FC01224FF480410C4891
:100CFC0000F052FC01224FF40041094800F04CFC7A
:100D0C00084BDB68074A23F47F43D360054BDB6851
:100D1C00054A528912021146024A0B43D36082E003
:100D2C0000080140000C01401C000020012204219D
:100D3C003F4800F031FC012208213D4800F02CFC1A
:100D4C0001224FF480613A4800F026FC01224FF456
:100D5C000061374800F020FC01224FF480513448E8
:100D6C0000F01AFC01224FF40051314800F014FC41
:100D7C0000224FF480412E4800F00EFC01224FF46B
:100D8C0000412B4800F008FC2A4BDB68294A23F46D
:100D9C007F43D360274BDB68274A928912021146A6
:100DAC00244A0B43D3603EE001220421204800F08A
:100DBC00F3FB012208211E4800F0EEFB01224FF448
:100DCC0080611B4800F0E8FB01224FF400611848D9
:100DDC0000F0E2FB01224FF48051154800F0DCFBDF
:100DEC0001224FF40051124800F0D6FB01224FF4BF
:100DFC0080410F4800F0D0FB00224FF400410C481A
:100E0C0000F0CAFB0B4BDB680A4A23F47F43D36028
:100E1C00084BDB68084AD28912021146054A0B437B
:100E2C00D36000E000BF00BF0837BD4680BD00BFE7
:100E3C0000080140000C01401C00002080B582B06D
:100E4C0000AF7860FFF7B8F900BF0837BD4680BD2A
:100E5C0080B400AF72B600BFFEE7000080B485B06E
:100E6C0000AF154B9B69144A43F001039361124B7D
:100E7C009B6903F00103BB60BB680F4BDB690E4A37
:100E8C0043F08053D3610C4BDB6903F080537B60E0
:100E9C007B680A4B5B68FB60FB6823F0E063FB60DC
:100EAC00FB6843F08063FB60044AFB68536000BF3F
:100EBC001437BD4680BC7047001002400000014052
:100ECC0080B584B000AF78607B681B68B3F1804F4D
:100EDC0013D10C4BDB690B4A43F00103D361094B73
:100EEC00DB6903F00103FB60FB68002200211C207E
:100EFC0000F0A1F91C2000F0BAF900BF1037BD4674
:100F0C0080BD00BF0010024080B400AFFEE780B48B
:100F1C0000AFFEE780B400AFFEE780B400AFFEE7A1
:100F2C0080B400AFFEE780B400AF00BFBD4680BC0C
:100F3C00704780B400AF00BFBD4680BC704780B422
:100F4C0000AF00BFBD4680BC704780B500AF00F05D
:100F5C007FF800BF80BD000080B500AF024800F0F4
:100F6C00C5FF00BF80BD00BF6000002080B400AF93
:100F7C0000BFBD4680BC7047FFF7F8FF0B480C491B
:100F8C000C4A002302E0D458C4500433C4188C42D9
:100F9C00F9D3094A094C002301E013600432A24240
:100FAC00FBD301F0EFFAFFF749F97047000000207E
:100FBC00380000202C26000838000020AC0000204F
:100FCC00FEE7000080B500AF084B1B68074A43F0F2
:100FDC0010031360032000F023F90F2000F008F831
:100FEC00FFF73CFF0023184680BD00BF00200240E5
:100FFC0080B582B000AF7860124B1A68124B1B7828
:10100C0019464FF47A73B3FBF1F3B2FBF3F31846C2
:10101C0000F03BF90346002B01D001230EE07B6866
:10102C000F2B0AD8002279684FF0FF3000F003F93B
:10103C00064A7B681360002300E00123184608373A
:10104C00BD4680BD2C000020340000203000002064
:10105C0080B400AF054B1B781A46054B1B68134434
:10106C00034A136000BFBD4680BC704734000020AB
:10107C00A800002080B400AF024B1B681846BD4688
:10108C0080BC7047A800002080B485B000AF7860A9
:10109C007B6803F00703FB600C4BDB68BB60BA6832
:1010AC004FF6FF031340BB60FB681A02BB68134387
:1010BC0043F0BF6343F40033BB60044ABB68D360A6
:1010CC0000BF1437BD4680BC704700BF00ED00E088
:1010DC0080B400AF044BDB681B0A03F0070318460F
:1010EC00BD4680BC704700BF00ED00E080B483B00B
:1010FC0000AF0346FB7197F90730002B0BDBFB7934
:10110C0003F01F02064997F907305B09012000FA2A
:10111C0002F241F8232000BF0C37BD4680BC70475B
:10112C0000E100E080B483B000AF03463960FB718E
:10113C0097F90730002B0ADB3B68DAB20C4997F9B8
:10114C0007301201D2B20B4483F800230AE03B684B
:10115C00DAB20849FB7903F00F03043B1201D2B257
:10116C000B441A7600BF0C37BD4680BC704700BFDD
:10117C0000E100E000ED00E080B489B000AFF86061
:10118C00B9607A60FB6803F00703FB61FB69C3F18C
:10119C000703042B28BF0423BB61FB690433062B14
:1011AC0002D9FB69033B00E000237B614FF0FF3267
:1011BC00BB6902FA03F3DA43BB681A407B699A40B5
:1011CC004FF0FF317B6901FA03F3D9437B680B4085
:1011DC00134318462437BD4680BC704780B582B097
:1011EC0000AF78607B68013BB3F1807F01D30123B2
:1011FC000FE00A4A7B68013B53600F214FF0FF3030
:10120C00FFF790FF054B00229A60044B07221A60EF
:10121C00002318460837BD4680BD00BF10E000E033
:10122C0080B582B000AF78607868FFF72DFF00BF03
:10123C000837BD4680BD80B586B000AF0346B960A7
:10124C007A60FB7300237B61FFF742FF78617A6859
:10125C00B9687869FFF790FF024697F90F3011468D
:10126C001846FFF75FFF00BF1837BD4680BD80B53D
:10127C0082B000AF0346FB7197F907301846FFF7B1
:10128C0035FF00BF0837BD4680BD80B582B000AFCA
:10129C0078607868FFF7A2FF034618460837BD460A
:1012AC0080BD000080B48BB000AF78603960002343
:1012BC007B6200233B6248E101227B6A02FA03F362
:1012CC00FB613B681B68FA691340BB61BA69FB6937
:1012DC009A4240F037813B685B68A34A93425ED0E8
:1012EC00A14A934275D8A14A934258D09F4A93423F
:1012FC006FD89F4A934252D09D4A934269D89D4AD7
:10130C0093424CD09B4A934263D89B4A934246D01B
:10131C00994A93425DD8122B2AD8122B59D801A284
:10132C0052F823F0AB13000885130008971300083C
:10133C00D9130008DF130008DF130008DF130008BF
:10134C00DF130008DF130008DF130008DF130008A9
:10135C00DF130008DF130008DF130008DF13000899
:10136C00DF130008DF1300088D130008A113000819
:10137C00824A934213D02CE03B68DB683B6229E045
:10138C003B68DB6804333B6224E03B68DB68083372
:10139C003B621FE03B68DB680C333B621AE03B6846
:1013AC009B68002B02D104233B6213E03B689B68D3
:1013BC00012B05D108233B627B68FA691A6109E0AD
:1013CC0008233B627B68FA695A6103E000233B62A5
:1013DC0000E000BFBB69FF2B01D87B6801E07B6894
:1013EC0004337B61BB69FF2B02D87B6A9B0002E054
:1013FC007B6A083B9B003B617B691A680F213B6948
:10140C0001FA03F3DB431A40396A3B6901FA03F32F
:10141C001A437B691A603B685B6803F08053002BAE
:10142C0000F09080564B9B69554A43F00103936141
:10143C00534B9B6903F00103BB60BB68514A7B6A49
:10144C009B08023352F82330FB607B6A03F00303E2
:10145C009B000F2202FA03F3DB43FA681340FB6094
:10146C007B68494A93420DD07B68484A934207D027
:10147C007B68474A934201D1022304E0032302E034
:10148C00012300E000237A6A02F0030292009340E9
:10149C00FA681343FB603B497B6A9B080233FA688A
:1014AC0041F823203B685B6803F48013002B06D0C3
:1014BC00384B9A683749BB6913438B6006E0354B50
:1014CC009A68BB69DB43334913408B603B685B68AC
:1014DC0003F40013002B06D02E4BDA682D49BB69A0
:1014EC001343CB6006E02B4BDA68BB69DB4329491D
:1014FC001340CB603B685B6803F40033002B06D0D1
:10150C00244B5A682349BB6913434B6006E0214BBB
:10151C005A68BB69DB431F4913404B603B685B68EF
:10152C0003F48033002B06D01A4B1A681949BB6997
:10153C0013430B6006E0174B1A68BB69DB43154974
:10154C0013400B607B6A01337B623B681A687B6AD1
:10155C0022FA03F3002B7FF4AFAE00BF00BF2C3791
:10156C00BD4680BC704700BF000032100000311037
:10157C0000002210000021100000121000001110B9
:10158C00001002400000014000080140000C014026
:10159C00001001400004014080B483B000AF7860BB
:1015AC000B467B8013467B707B78002B03D07A88AC
:1015BC007B681A6103E07B881A047B681A6100BFA0
:1015CC000C37BD4680BC704780B485B000AF7860E6
:1015DC000B467B807B68DB68FB607A88FB6813407A
:1015EC001A04FB68D9437B880B401A437B681A6149
:1015FC0000BF1437BD4680BC7047000080B586B074
:10160C0000AF78607B68002B01D101236CE27B6812
:10161C001B6803F00103002B00F08780924B5B6882
:10162C0003F00C03042B0CD08F4B5B6803F00C0302
:10163C00082B12D18C4B5B6803F48033B3F5803FDD
:10164C000BD1894B1B6803F40033002B6CD07B68E7
:10165C005B68002B68D1012346E27B685B68B3F5BD
:10166C00803F06D1804B1B687F4A43F48033136064
:10167C002EE07B685B68002B0CD17B4B1B687A4A95
:10168C0023F480331360784B1B68774A23F4802350
:10169C0013601DE07B685B68B3F5A02F0CD1724B17
:1016AC001B68714A43F4802313606F4B1B686E4AAE
:1016BC0043F4803313600BE06B4B1B686A4A23F4D2
:1016CC0080331360684B1B68674A23F480231360D4
:1016DC007B685B68002B13D0FFF7CCFC386108E00B
:1016EC00FFF7C8FC02463B69D31A642B01D90323CC
:1016FC00FAE15D4B1B6803F40033002BF0D014E0CF
:10170C00FFF7B8FC386108E0FFF7B4FC02463B6910
:10171C00D31A642B01D90323E6E1534B1B6803F462
:10172C000033002BF0D100E000BF7B681B6803F096
:10173C000203002B63D04C4B5B6803F00C03002BB3
:10174C000BD0494B5B6803F00C03082B1CD1464BA8
:10175C005B6803F48033002B16D1434B1B6803F0FA
:10176C000203002B05D07B681B69012B01D00123E0
:10177C00BAE13D4B1B6823F0F8027B685B69DB0028
:10178C00394913430B603AE07B681B69002B20D06E
:10179C00364B01221A60FFF76DFC386108E0FFF749
:1017AC0069FC02463B69D31A022B01D903239BE146
:1017BC002D4B1B6803F00203002BF0D02A4B1B6847
:1017CC0023F0F8027B685B69DB00274913430B604D
:1017DC0015E0264B00221A60FFF74CFC386108E03C
:1017EC00FFF748FC02463B69D31A022B01D90323AD
:1017FC007AE11D4B1B6803F00203002BF0D17B68D0
:10180C001B6803F00803002B3AD07B689B69002B04
:10181C0019D0174B01221A60FFF72CFC386108E035
:10182C00FFF728FC02463B69D31A022B01D903238C
:10183C005AE10D4B5B6A03F00203002BF0D0012040
:10184C0000F09AFA1CE00A4B00221A60FFF712FC17
:10185C0038610FE0FFF70EFC02463B69D31A022BEE
:10186C0008D9032340E100BF0010024000004242AF
:10187C00800442429E4B5B6A03F00203002BE9D1C9
:10188C007B681B6803F00403002B00F0A680002388
:10189C00FB75974BDB6903F08053002B0DD1944BF8
:1018AC00DB69934A43F08053D361914BDB6903F0BE
:1018BC008053BB60BB680123FB758E4B1B6803F424
:1018CC008073002B18D18B4B1B688A4A43F48073AE
:1018DC001360FFF7CFFB386108E0FFF7CBFB024644
:1018EC003B69D31A642B01D90323FDE0814B1B68A0
:1018FC0003F48073002BF0D07B68DB68012B06D1DE
:10190C007B4B1B6A7A4A43F0010313622DE07B6820
:10191C00DB68002B0CD1764B1B6A754A23F0010354
:10192C001362734B1B6A724A23F0040313621CE0AC
:10193C007B68DB68052B0CD16D4B1B6A6C4A43F042
:10194C00040313626A4B1B6A694A43F00103136276
:10195C000BE0674B1B6A664A23F001031362644B6E
:10196C001B6A634A23F0040313627B68DB68002B59
:10197C0015D0FFF77FFB38610AE0FFF77BFB0246CF
:10198C003B69D31A41F28832934201D90323ABE06D
:10199C00574B1B6A03F00203002BEED014E0FFF749
:1019AC0069FB38610AE0FFF765FB02463B69D31A15
:1019BC0041F28832934201D9032395E04C4B1B6AC8
:1019CC0003F00203002BEED1FB7D012B05D1484B1C
:1019DC00DB69474A23F08053D3617B68DB69002BBA
:1019EC0000F08180424B5B6803F00C03082B61D044
:1019FC007B68DB69022B46D13F4B00221A60FFF754
:101A0C0039FB386108E0FFF735FB02463B69D31A16
:101A1C00022B01D9032367E0354B1B6803F00073DD
:101A2C00002BF0D17B681B6AB3F5803F08D1304B9B
:101A3C005B6823F400327B689B682D4913434B6031
:101A4C002B4B5B6823F474127B68196A7B685B6AA6
:101A5C000B43274913434B60274B01221A60FFF7B6
:101A6C0009FB386108E0FFF705FB02463B69D31A16
:101A7C00022B01D9032337E01D4B1B6803F00073C5
:101A8C00002BF0D02FE01C4B00221A60FFF7F2FA6B
:101A9C00386108E0FFF7EEFA02463B69D31A022BD5
:101AAC0001D9032320E0124B1B6803F00073002BB9
:101ABC00F0D118E07B68DB69012B01D1012313E025
:101ACC000B4B5B68FB60FB6803F480327B681B6A22
:101ADC009A4206D1FB6803F470127B685B6A9A42E7
:101AEC0001D0012300E0002318461837BD4680BD05
:101AFC0000100240007000406000424280B584B08B
:101B0C0000AF786039607B68002B01D10123D0E0F5
:101B1C006A4B1B6803F007033A689A4210D9674B6B
:101B2C001B6823F0070265493B6813430B60634B4A
:101B3C001B6803F007033A689A4201D00123B8E00E
:101B4C007B681B6803F00203002B20D07B681B68AA
:101B5C0003F00403002B05D0594B5B68584A43F43F
:101B6C00E06353607B681B6803F00803002B05D00F
:101B7C00534B5B68524A43F460535360504B5B6861
:101B8C0023F0F0027B689B684D4913434B607B68E4
:101B9C001B6803F00103002B40D07B685B68012BB2
:101BAC0007D1474B1B6803F40033002B15D10123DD
:101BBC007FE07B685B68022B07D1414B1B6803F00D
:101BCC000073002B09D1012373E03D4B1B6803F01C
:101BDC000203002B01D101236BE0394B5B6823F02E
:101BEC0003027B685B68364913434B60FFF742FA8C
:101BFC00F8600AE0FFF73EFA0246FB68D31A41F29E
:101C0C008832934201D9032353E02D4B5B6803F0D8
:101C1C000C027B685B689B009A42EBD1274B1B68DC
:101C2C0003F007033A689A4210D2244B1B6823F046
:101C3C00070222493B6813430B60204B1B6803F0DF
:101C4C0007033A689A4201D0012332E07B681B6893
:101C5C0003F00403002B08D0194B5B6823F4E062FB
:101C6C007B68DB68164913434B607B681B6803F089
:101C7C000803002B09D0124B5B6823F460527B687D
:101C8C001B69DB000E4913434B6000F021F8024640
:101C9C000B4B5B681B0903F00F030A49CB5C22FA60
:101CAC0003F3094A1360094B1B681846FFF7A0F9A8
:101CBC00002318461037BD4680BD00BF00200240EF
:101CCC0000100240002600082C00002030000020EC
:101CDC0080B487B000AF0023FB600023BB600023FF
:101CEC007B6100237B6000233B611E4B5B68FB60C8
:101CFC00FB6803F00C03042B02D0082B03D027E065
:101D0C00194B3B6127E0FB689B0C03F00F03174A50
:101D1C00D35C7B60FB6803F48033002B10D0114B39
:101D2C005B685B0C03F00103114AD35CBB607B68FE
:101D3C000D4A02FB03F2BB68B2FBF3F37B6104E0D8
:101D4C007B680C4A02FB03F37B617B693B6102E01D
:101D5C00054B3B6100BF3B6918461C37BD4680BC38
:101D6C00704700BF0010024000127A0010260008D5
:101D7C002026000800093D0080B485B000AF7860D3
:101D8C000A4B1B680A4AA2FB03235B0A7A6802FB14
:101D9C0003F3FB6000BFFB685A1EFA60002BF9D1FD
:101DAC0000BF00BF1437BD4680BC70472C0000201C
:101DBC00D34D621080B582B000AF78607B68002B89
:101DCC0001D1012341E07B6893F83D30DBB2002B5D
:101DDC0006D17B68002283F83C207868FFF770F806
:101DEC007B68022283F83D207B681A687B68043389
:101DFC001946104600F06EFA7B68012283F84620E3
:101E0C007B68012283F83E207B68012283F83F2007
:101E1C007B68012283F840207B68012283F84120F3
:101E2C007B68012283F842207B68012283F84320DF
:101E3C007B68012283F844207B68012283F84520CB
:101E4C007B68012283F83D20002318460837BD46E5
:101E5C0080BD000080B485B000AF78607B6893F8DB
:101E6C003D30DBB2012B01D0012335E07B6802222F
:101E7C0083F83D207B681B68DA687B681B6842F03E
:101E8C000102DA607B681B68164A934209D07B68B2
:101E9C001B68B3F1804F04D07B681B68124A9342D5
:101EAC0011D17B681B689B6803F00703FB60FB6820
:101EBC00062B10D07B681B681A687B681B6842F085
:101ECC0001021A6007E07B681B681A687B681B6854
:101EDC0042F001021A60002318461437BD4680BC3C
:101EEC00704700BF002C01400004004080B582B058
:101EFC0000AF78607B681B681B6903F00203022B40
:101F0C0022D17B681B68DB6803F00203022B1BD118
:101F1C007B681B686FF002021A617B6801221A77DA
:101F2C007B681B689B6903F00303002B03D0786864
:101F3C0000F0B4F905E0786800F0A7F9786800F0D3
:101F4C00B6F97B6800221A777B681B681B6903F063
:101F5C000403042B22D17B681B68DB6803F00403A9
:101F6C00042B1BD17B681B686FF004021A617B6821
:101F7C0002221A777B681B689B6903F44073002B61
:101F8C0003D0786800F08AF905E0786800F07DF9F4
:101F9C00786800F08CF97B6800221A777B681B68E4
:101FAC001B6903F00803082B22D17B681B68DB68D4
:101FBC0003F00803082B1BD17B681B686FF0080229
:101FCC001A617B6804221A777B681B68DB6903F053
:101FDC000303002B03D0786800F060F905E0786803
:101FEC0000F053F9786800F062F97B6800221A77E8
:101FFC007B681B681B6903F01003102B22D17B68D4
:10200C001B68DB6803F01003102B1BD17B681B686B
:10201C006FF010021A617B6808221A777B681B68C4
:10202C00DB6903F44073002B03D0786800F036F9B9
:10203C0005E0786800F029F9786800F038F97B68D9
:10204C0000221A777B681B681B6903F00103012BC4
:10205C000ED17B681B68DB6803F00103012B07D1F1
:10206C007B681B686FF001021A617868FEF7E6FE68
:10207C007B681B681B6903F08003802B0ED17B6887
:10208C001B68DB6803F08003802B07D17B681B681F
:10209C006FF080021A61786800F06BFA7B681B683D
:1020AC001B6903F04003402B0ED17B681B68DB6877
:1020BC0003F04003402B07D17B681B686FF0400294
:1020CC001A61786800F0FCF87B681B681B6903F0E8
:1020DC002003202B0ED17B681B68DB6803F02003E8
:1020EC00202B07D17B681B686FF020021A6178687F
:1020FC0000F036FA00BF0837BD4680BD80B584B00D
:10210C0000AF786039600023FB737B6893F83C3038
:10211C00012B01D10223B4E07B68012283F83C201F
:10212C007B68022283F83D207B681B689B68BB6040
:10213C00BB6823F07703BB60BB6823F47F43BB60B1
:10214C007B681B68BA689A603B681B68B3F5005FD4
:10215C003ED0B3F5005F00F28780B3F5805F00F0EE
:10216C008680B3F5805F7FD8702B1AD0702B7BD80C
:10217C00602B50D0602B77D8502B3CD0502B73D881
:10218C00402B58D0402B6FD8302B64D0302B6BD8D1
:10219C00202B60D0202B67D8002B5CD0102B5AD072
:1021AC0062E07B6818683B6899683B685A683B68D2
:1021BC00DB6800F05EF97B681B689B68BB60BB68E2
:1021CC0043F07703BB607B681B68BA689A604FE08A
:1021DC007B6818683B6899683B685A683B68DB68A1
:1021EC0000F047F97B681B689A687B681B6842F4AF
:1021FC0080429A603CE07B6818683B6859683B6891
:10220C00DB681A4600F0BEF87B681B685021184644
:10221C0000F015F92CE07B6818683B6859683B683E
:10222C00DB681A4600F0DCF87B681B6860211846F6
:10223C0000F005F91CE07B6818683B6859683B683E
:10224C00DB681A4600F09EF87B681B684021184634
:10225C0000F0F5F80CE07B681A683B681B681946BF
:10226C00104600F0ECF803E00123FB7300E000BF24
:10227C007B68012283F83D207B68002283F83C2098
:10228C00FB7B18461037BD4680BD80B483B000AFD1
:10229C00786000BF0C37BD4680BC704780B483B0FB
:1022AC0000AF786000BF0C37BD4680BC704780B46F
:1022BC0083B000AF786000BF0C37BD4680BC704760
:1022CC0080B483B000AF786000BF0C37BD4680BCD3
:1022DC007047000080B485B000AF786039607B68CF
:1022EC001B68FB607B68254A934207D07B68B3F17F
:1022FC00804F03D07B68224A934208D1FB6823F0BD
:10230C007003FB603B685B68FA681343FB607B6897
:10231C001A4A934207D07B68B3F1804F03D07B6895
:10232C00174A934208D1FB6823F44073FB603B6867
:10233C00DB68FA681343FB60FB6823F080023B68A0
:10234C005B691343FB607B68FA681A603B689A68A8
:10235C007B68DA623B681A687B689A627B68074A1A
:10236C00934203D13B681A697B681A637B6801222C
:10237C005A6100BF1437BD4680BC7047002C014029
:10238C000004004080B487B000AFF860B9607A6098
:10239C00FB681B6A7B61FB681B6A23F00102FB680C
:1023AC001A62FB689B693B613B6923F0F0033B615C
:1023BC007B681B013A6913433B617B6923F00A0379
:1023CC007B617A69BB6813437B61FB683A699A61EC
:1023DC00FB687A691A6200BF1C37BD4680BC704727
:1023EC0080B487B000AFF860B9607A60FB681B6A94
:1023FC007B61FB681B6A23F01002FB681A62FB68A6
:10240C009B693B613B6923F470433B617B681B0315
:10241C003A6913433B617B6923F0A0037B61BB6882
:10242C001B017A6913437B61FB683A699A61FB680B
:10243C007A691A6200BF1C37BD4680BC704780B4F5
:10244C0085B000AF786039607B689B68FB60FB6887
:10245C0023F07003FB603A68FB68134343F00703F7
:10246C00FB607B68FA689A6000BF1437BD4680BC7D
:10247C00704780B487B000AFF860B9607A603B6099
:10248C00FB689B687B617B6923F47F437B613B68C2
:10249C001A027B681A43BB6813437A6913437B6146
:1024AC00FB687A699A6000BF1C37BD4680BC7047D8
:1024BC0080B485B000AF786039607B6893F83C30AD
:1024CC00012B01D1022341E07B68012283F83C20DF
:1024DC007B68022283F83D207B681B685B68FB608D
:1024EC007B681B689B68BB60FB6823F07003FB6018
:1024FC003B681B68FA681343FB607B681B68FA68CF
:10250C005A607B681B68144A934209D07B681B682D
:10251C00B3F1804F04D07B681B68104A93420CD1F6
:10252C00BB6823F08003BB603B685B68BA681343ED
:10253C00BB607B681B68BA689A607B68012283F871
:10254C003D207B68002283F83C200023184614377A
:10255C00BD4680BC704700BF002C01400004004009
:10256C0080B483B000AF786000BF0C37BD4680BC30
:10257C00704780B483B000AF786000BF0C37BD46A5
:10258C0080BC704770B500260C4D0D4C641BA4101C
:10259C00A64209D100F022F800260A4D0A4C641B11
:1025AC00A410A64205D170BD55F8043B98470136DE
:1025BC00EEE755F8043B98470136F2E7242600086D
:1025CC002426000824260008282600080346024476
:1025DC00934200D1704703F8011BF9E7F8B500BF2F
:1025EC00F8BC08BC9E467047F8B500BFF8BC08BCE8
:0425FC009E46704740
:1026000000000000000000000102030406070809A2
:1026100002030405060708090A0B0C0D0E0F101023
:0426200001020000B3
:042624003101000878
:042628000D01000898
:10262C00010000000100000001000000000000009B
:10263C00010000000200000003000000FF00070082
:10264C0003009900990C03000700FF000024F4001C
:08265C00100000000100000065
:0400000508000F855B
:00000001FF
